:020000021000EC
:10B000000080002041D8010081D8010083D80100D0
:10B010000000000000000000000000000000000030
:10B0200000000000000000000000000085D80100C2
:10B03000000000000000000087D8010089D801004E
:10B04000D5BD01008BD8010031C701008BD80100AC
:10B050008BD801000000000055C201008BD8010010
:10B060008BD801008BD801008BD801008BD8010050
:10B070008BD801008BD801008BD801008BD8010040
:10B080008BD8010075B401008BD801008BD801006A
:10B0900051B501008BD80100A1DD01008BD8010062
:10B0A0008BD801008BD801000000000000000000D8
:10B0B0000000000000000000000000000000000090
:10B0C00010B5064C2378002B07D1054B002B02D07E
:10B0D000044800E000BF0123237010BD642000205D
:10B0E0000000000084DE0100084B10B5002B03D0E7
:10B0F0000749084800E000BF07480368002B00D15B
:10B1000010BD064B002BFBD09847F9E7000000006C
:10B110006820002084DE0100602000200000000084
:10B12000164B002B00D1144B9D46402292029A1AD6
:10B13000924600218B460F461348144A121A00F01B
:10B1400067F80F4B002B00D098470E4B002B00D018
:10B1500098470020002104000D000D48002802D06F
:10B160000C4800E000BF00F02DF82000290001F09D
:10B1700087FC00F011F8C0460000080000800020A5
:10B18000000000000000000064200020A022002039
:10B190000000000000000000084B10B50400002B68
:10B1A00002D0002100E000BF054B1868836A002B25
:10B1B00000D09847200000F033F8C046000000009F
:10B1C00054DE01000E4B70B500251E000D4CE41A34
:10B1D000A410A54204D0AB00F35898470135F8E716
:10B1E00002F02CFE084B00251E00084CE41AA410A7
:10B1F000A54204D0AB00F35898470135F8E770BD7D
:10B200005820002058200020582000205C200020DA
:10B2100003008218934202D019700133FAE7704795
:10B22000FEE7C046F0B54E4657464546E0B4214BD2
:10B230001978994600292AD01F4B002598461F4BA4
:10B240001F4F01269A4603E00135EDB28D421ED212
:10B2500043461B6832009C46EC00644420783B68FF
:10B2600082401342F0D093433B6000F0E9FF33008B
:10B2700022785146934009680B40010091408B426F
:10B280000AD04B4601351978EDB28D42E0D31CBC93
:10B2900090469946A246F0BD6368002BF1D06178D4
:10B2A00001394C424C41211A4C424C411000E1B250
:10B2B0009847E6E78820002084200020AC2000206A
:10B2C000B0200020F8B5124D0700280000F0D2FC95
:10B2D000002807D10124BC400E4E3368234202D01F
:10B2E000A3433360F8BD380000F0AAFF0A4A136890
:10B2F00000280BD023431360336800221C43074B04
:10B3000028001968346000F055FCEBE7A343F2E72E
:10B310008C200020B0200020AC20002080200020C5
:10B32000F0B54F464646C0B41400070083B00E0087
:10B330000720042A04D803B00CBC90469946F0BDFF
:10B3400000F042FE00282FD01A4B1B4A1F601B4BF7
:10B35000751E1E701A4BEDB21C6000231360194A53
:10B360001360002E1AD0184B01AC99460323002617
:10B37000984600E01D004246EB00FB182270A670C4
:10B38000E6709A781878627021004A4600F026FE2E
:10B390000028D0D16B1EDBB2002DEBD10B4A00216F
:10B3A0000B4800F0EDFBC6E700F0D4FD0028CBD041
:10B3B000C1E7C04684200020AC2000208820002067
:10B3C00080200020B0200020C5B2010025B201007D
:10B3D00058DE010070B5094D2B78002B0BD00024EE
:10B3E000074E3268E300985C012100F0A5FE2B783F
:10B3F0000134A342F5D8002070BDC046882000204B
:10B400008420002070B5094D2B78002B0AD0002431
:10B41000074E3268E300985C00F0E2FE2B780134BE
:10B42000A342F6D8034800F025FC70BD8820002018
:10B43000842000208C200020002300B585B001AAC4
:10B440009060002103481380536000F005F805B0B8
:10B4500000BDC04601400000BFF34F8F034A044BBC
:10B46000DA60BFF34F8FC046FDE7C0460400FA051F
:10B4700000ED00E0A021F0B5002347462B4A49002B
:10B4800080B453500431535004315350043153505D
:10B490004C39535004315350254B1B68002B35D089
:10B4A0002449002652582449244F0C68141B0022BA
:10B4B0002402240A904602E0002D18D02B001A68BE
:10B4C000A24214D8A41AB6181A7CDD69002AF3D057
:10B4D000424699691A745A693B68002B19D01000CA
:10B4E00098470028E8D0FFF7A7FF002DE6D1144BBE
:10B4F00014491A780B789A420ED0134A9B009E503A
:10B5000080218023114A49035B00D15004BC90463E
:10B51000F0BD08009047CFE70132D3B2022B01D033
:10B520000B70EAE700230B70E7E7C046001001400C
:10B53000B820002004050000B4200020BC2000201A
:10B54000C0200020C1200020CC20002000E100E02D
:10B55000F0B556465F464D464446F0B4AE4BAF4A52
:10B560001B68AF499A46097813788BB0994200D18D
:10B57000F1E00133DBB2022B00D1F0E01370A94AF5
:10B580009B009E5853469B191B02A34A1B0A13603B
:10B59000012398460020A44B84461B780024019385
:10B5A0001900A24B1B6899469F4B4D465B781A00C9
:10B5B00005939D4B5B6802939B4B9B78089003938C
:10B5C000954B07901B689A4804939A4B83461B78C7
:10B5D0006046069309964B4616000090B1421DD076
:10B5E00002984A008446521803980131D200C9B229
:10B5F0006244814200D1A4E01078022800D184E0A6
:10B600000328EBD1002BE9D01C74DB69002BFBD1A4
:10B610000133009300250023B142E1D1009A099E35
:10B62000002A00D0F6E1079A002A02D07A4A04994B
:10B630001160089A002A03D069467E4A097E11707B
:10B640004246002A00D05EE14A46D21A511E8A4183
:10B6500000251E00D2B2089206936F4B00271B688C
:10B660009C46724B1B689B46724B1B780793019B51
:10B67000984600230193049301339A466E4B00933E
:10B68000002D27D06968A8682C00ED696346CA1AA6
:10B69000009B1202120A9A4273D813185246236072
:10B6A0006760A7602274E761002E79D031683000AE
:10B6B000994204D38BE01168994277D21000C26995
:10B6C0005B1A002AF7D1E26132002360C4611600E0
:10B6D000002DD7D1059B984500D1AFE0029A434693
:10B6E000914642460132D2B25B0043449046039AEF
:10B6F000DB004B44424500D18BE01A78012A6FD021
:10B700003200012316000493E2E75768002B28D08B
:10B7100018009F4201D116E01000C269002A00D132
:10B720005CE79742F8D190420ED01768D269BC46C8
:10B73000C261002A00D151E71368634413602B00F3
:10B740004CE7002158E71A00DD69002D0BD00127D6
:10B750002B000097E9E70023002698461AE700230C
:10B760000CE700233AE701275B4601359D60089707
:10B7700006970797002704970137002500230097B5
:10B78000D3E76346591A0902090A814215D2524683
:10B79000431A23606760A7602274E761002E85D199
:10B7A00022000123A3460193160091E7C91A1160F4
:10B7B000E26123603200C46189E753462760676015
:10B7C000A7602374E761002EEAD000233168CB1A0A
:10B7D000336022000123E661A3460193160077E758
:10B7E0005C68227C110032000491002900D06EE7D1
:10B7F00099686160D868A0601A69E2605B69A361BA
:10B80000079B002B00D177E0049A0021626004932B
:10B810003CE70022904670E7B4200020C0200020C2
:10B82000C1200020CC200020C4200020B82000200F
:10B8300000100140C2200020FEFF7F00049B002B6F
:10B8400000D0EAE0019B002B02D05A46764B1A60EA
:10B85000069BB34253D0002E00D1A4E07349744B31
:10B86000744C58586146411A09022578090A326811
:10B870000331002D21D18025D1266D02B6009D51C6
:10B88000403E9D51C02780266B4DB6027F00EE5191
:10B890002E6001251D60694B694F1E682F23C0462D
:10B8A000C046C046C046C046C046C046C046BE426E
:10B8B00000D0C046013BF2D125708A4200D20A0076
:10B8C000A824624412025A49130AE400574D0B514E
:10B8D0004A591B1A121A1202120A1B0203321B0ABD
:10B8E0009A4246D80023574A13700BB03CBC90468E
:10B8F0009946A246AB46F0BD01230493C6E6089BD9
:10B90000002BEFD0A7E70025474AAC461068002778
:10B9100000210024454615E01A68B2421ED8D868B6
:10B92000B61A89181C60DF69002808D052465218E0
:10B930001202120A5A6062469C469860DA613B0025
:10B9400038002F00002BE7D16546002F00D05EE0C5
:10B950000023069301330893069E7EE66546002F7A
:10B9600000D05EE0961B1E6006930123069E08939E
:10B9700073E64B590B51314B31491A682F23C0469E
:10B98000C046C046C046C046C046C046C0468A42C1
:10B9900000D0C046013BF2D180218023264A890293
:10B9A0005B00D1509EE780218023234A8902D15039
:10B9B0008023D22101241E4A5B0289005350403962
:10B9C00053501E4B546019682F231D481D00C0465C
:10B9D000C046C046C046C046C046C046C04681427A
:10B9E00000D0C046013DF2D19460174A1660C046AF
:10B9F000C046C046C046C046C046C046C04681425A
:10BA000000D0C046013BF2D10A4B1E706AE7064BDC
:10BA100018609DE7044A156005E642460B4B1A7014
:10BA200010E7014908609DE7B820002004050000E8
:10BA300000100140D420002000E100E0542000204C
:10BA40000024F400C2200020B4200020C4200020E4
:10BA5000F0B55F46444656464D46F0B4032483B0E5
:10BA60000700019314400720002C06D003B03CBC13
:10BA700090469946A246AB46F0BD002AF6D08026F5
:10BA8000324DB60279302E50802040028046D220BE
:10BA900043462F4E800033504038335001207060B1
:10BAA00081462C48006884462B4880462F208346D8
:10BAB000C046C046C046C046C046C046C046C04656
:10BAC000C44500D0C0460138F2D14846B06058465F
:10BAD000C046C046C046C046C046C046C046C04636
:10BAE000C44500D0C0460138F2D11C48019B047007
:10BAF0001B4803601B4BC5201C7099705C705A601A
:10BB0000194B80211C60194BFF221C70184B4903F4
:10BB10001C70C0235B00E95080002B5893433F3AD0
:10BB200013432B50A123C422DB0029609200F7505D
:10BB3000A958104B00200B40C02109020B43AB5009
:10BB40000D4BF2580D4B1A6090E7C04600E100E043
:10BB500000100140542000200024F400D4200020D4
:10BB6000BC200020C4200020B8200020C0200020DD
:10BB7000C1200020FF00FFFF04050000B4200020CA
:10BB800010B50B4B5B68002B0BD0002A07D00028A8
:10BB900005D0036808201C7C002C04D010BD0720B1
:10BBA000FCE70820FAE759745A610020F6E7C0461E
:10BBB000C4200020F0B54F4680B42A4C82B06368A0
:10BBC00005000E001700002B08D0002806D0072023
:10BBD000042905D802B004BC9146F0BD0820F9E75D
:10BBE0006B69002BFAD000226B7C9146012B2ED082
:10BBF0006A460023D01DD37100F07EF86378A178E7
:10BC00005A1CD2B2914224D02178914223D05900BB
:10BC1000CB186168DB008C466344002B1BD00121EC
:10BC20001148197011495D604158DE6099604946BC
:10BC30005F6119616B46D879627000F07DF88021F0
:10BC400080230B4A49035B00D1500020C2E789469C
:10BC5000CEE70022D8E76B46D87900F06DF80420D3
:10BC6000B8E7C046C42000200010014004050000D1
:10BC700000E100E070B51E4C0500636882B008204A
:10BC8000002B2BD0002D29D06B69002B26D06A46C3
:10BC90000023D61D2B743000337000F02DF863782C
:10BCA000A1785A1CD2B291421AD02178914219D06F
:10BCB0005900CB186168DB008C466344002B11D01F
:10BCC000022119705D603078627000F035F88021D3
:10BCD00080230020074A49035B00D15002B070BDA9
:10BCE0000022E2E7307800F027F80420F6E7C046AB
:10BCF000C420002000E100E0F0B5EFF3108172B63F
:10BD00000A4B5A68002A0DD101248025084E5C6038
:10BD10007459084F3C401C6077510270002900D1D3
:10BD200062B6F0BD01230370F8E7C04698220020F8
:10BD300000E100E0FC06FFBC10B5084B5A68002A81
:10BD40000BD0002809D1EFF3108272B604491C68A9
:10BD50000C605860002A00D162B610BD9822002005
:10BD600000E100E0044BA0211A5C01239340034A48
:10BD7000C9058B507047C0465CDE01000C05000011
:10BD8000044BA0211A5C01239340A122C905D200D3
:10BD90008B5070475CDE0100A02303220B49DB05BA
:10BDA0005A5004315A500A495A5004315A50A1226B
:10BDB0008021D200890399508021C90399508021A4
:10BDC0000904995080214904995070475407000094
:10BDD0005C07000010B51A4B1A68002A14D0002224
:10BDE00080211A60C2220123164C9200C9058B5093
:10BDF0006370A368002B07D01A6800205B68A260FC
:10BE00009847A368002BF7D10F4B1A68002A15D06A
:10BE100000221A60C223802202219B00D205D15049
:10BE20000123084CA3702369002B07D01A68012056
:10BE30005B68226198472369002BF7D110BDC0468B
:10BE400000010040D82000200401004010B5002867
:10BE50000BD1064CA368002B07D01A6800205B6842
:10BE6000A2609847A368002BF7D110BDD82000200E
:10BE700030B583B06B46DD1D002328002B70FFF723
:10BE80003BFF134C2378002B13D16360A360236125
:10BE9000E360104B1B68DB0715D501F021FF00287C
:10BEA00005D1A32380220121DB00D205D15001233B
:10BEB0002370E36828780133E3600123A370FFF760
:10BEC0003BFF03B030BD0321002000F005F8E4E79C
:10BED000D820002000E100E0F0B500281EDBFF269E
:10BEE0001A4B37009C4603238208C025C0B203408A
:10BEF000DB0089019F403140994092006244AD00CF
:10BF00005459BC43214351511F23C02118401E3BAB
:10BF100083400E4A490053501360F0BDFF250C4A80
:10BF20002E00944603220F23C0B20240D2008901A2
:10BF30009640294091400340083B9B089B00634486
:10BF4000DC69B4432143D961DEE7C04600E100E08B
:10BF500000ED00E070B54425184C0820665D002E09
:10BF600000D070BD01234022FF215B42A354013267
:10BF7000A1540132A354236201326362A362E362DB
:10BF800023636363A363E363FC390238A354236030
:10BF90006360A360E36023616361A361E361FFF712
:10BFA0009BFF074B80211E60C123064A9B000906A8
:10BFB000D150012300206355D3E7C046EC20002078
:10BFC0007C610040006000404423034AD05C431E73
:10BFD0009841C0B27047C046EC200020F0B54746FB
:10BFE00080B4524C0825231820331E787F2E03D8A6
:10BFF000280004BC9046F0BDCD78AC46002D36D06C
:10C000002568013500D186E0042300269846731C7C
:10C010009D006759013733D0B31C984525D99D0041
:10C02000675901372CD0F31C98451ED99D006759DC
:10C03000013725D0331D984517D99D006759013721
:10C040001ED0731D984510D99D006759013717D030
:10C05000B31D984509D99D006759013710D007369F
:10C06000B04502D9E369013308D00425C0E725694A
:10C07000013555D0082304269846C8E707231C2518
:10C080006251624627185EB220373E70002A02D104
:10C09000E3183C3318708B78002B14D10300A025D3
:10C0A0004A78C133FF3392009B00ED055A51CB789B
:10C0B000002B14D1A4193C340B7822789B01134334
:10C0C0002370002594E7A022D2059446E02502279C
:10C0D00083006344ED005A59BA435A51E7E7144AC2
:10C0E0000B789446A221B6006644C9007458114AE0
:10C0F000000222407250F822520110400500C02276
:10C100001804030028009202745813401843204377
:10C11000705000256CE7002522601D700026BAE7EC
:10C12000042522611D702E002B00B1E7EC200020B9
:10C1300000600040FFE0FCFF0023F0B5254C221812
:10C140002032D356032B18DDE3183C331B789B09B0
:10C15000032B33D0012B39D0C0218902A023DB056A
:10C160009C46E02380006044DB00C4581A4A224009
:10C17000C250C2580A43C250F0BDD8B20328FBD8FF
:10C18000164DA227AC46012698006044FF00C55911
:10C190003543C5511800654600274030800080B205
:10C1A00047510029E8D0127852B292001259002A61
:10C1B000E2D09E40C1239B00EE50DDE7A223A022E7
:10C1C000DB00D205D358C340DB07C5D480218902E8
:10C1D000C4E7C046EC200020FFFFFCFF00600040E9
:10C1E00010B5144B1B1820331B785BB2032B12DCE9
:10C1F000DAB2032A0ED8104AA224944601229900EA
:10C200006144E400085990439A40C22308516146B2
:10C210009B00CA5010BDA023DB059C46E023800094
:10C220006044DB00C158054A0A40C250C258C2509F
:10C23000F0E7C046EC20002000600040FFFFFCFF5C
:10C24000A222A0210300D200C9058858D8400123AA
:10C2500018407047F0B54D465F46564644460023A9
:10C26000F0B4C64A87B0039313680025012B00D1B0
:10C27000DDE1C34B1A68012A00D1CCE1C14B1A6839
:10C28000012A00D1BBE1C04B1A68012A00D1AAE102
:10C29000BE4B1A68012A00D199E12B071CD0BC4B78
:10C2A000A22798460323012600249946FF002E4228
:10C2B0000ED0B84AA3009A18D059D1594246D35843
:10C2C000002B05D04A46090CC0041140C00E984707
:10C2D00001347600042CEAD1002D06DB07B03CBC0B
:10C2E00090469946A246AB46F0BD00230493013B1D
:10C2F000059341339846C026A54C4346E1564B1C56
:10C300002CD007220123C9B208000A409340B04351
:10C31000C70805AAD25D134220D022182032127815
:10C32000890952B29200A2589146002A00D10EE12A
:10C33000032900D10EE1A025ED05AC46820094440E
:10C34000E0226546D200AA5803ADEF5D9203920F3A
:10C350003B4200D0D2E0032A00D172E10027412302
:10C36000E1564B1C37D007230125C9B20B409D4035
:10C3700008002B00B043C20805ADAD5C2B422AD0AB
:10C380002518AC462025A946CC4465462D78890958
:10C390006DB2AD0065590191A946002D00D1FBE0B9
:10C3A000032900D1FBE08500AA46A025ED05AC4697
:10C3B000E025ED00E244AC465546614669588903E4
:10C3C000890F8C4603A98A5C134200D0A3E0634620
:10C3D000032B00D147E14223E1564B1C36D0072303
:10C3E0000125C9B20B409D4008002B00B043C20894
:10C3F00005ADAD5C2B4229D02518AC462025A946B9
:10C40000CC4465462D7889096DB2AD00655901911E
:10C41000A946002D00D1A3E0032900D1A3E08500A7
:10C42000AA46A025ED05AC46E025ED00E244AC4669
:10C430005546614669588903890F8C4603A98A5C71
:10C44000134277D16346032B00D146E14323E156E3
:10C450004B1C36D007230125C9B20B409D40080074
:10C460002B00B043C20805ADAD5C2B4229D0251886
:10C47000AC462025A946CC4465462D7889096DB285
:10C48000AD0065590191A946002D00D192E0032924
:10C4900000D191E08500AA46A025ED05AC46E02537
:10C4A000ED00E244AC465546614669588903890F60
:10C4B0008C4603A98A5C134213D16346032B00D137
:10C4C000ECE0002F00D109E7A223A022DB00D20577
:10C4D000D358039A934200D100E70393049B05933A
:10C4E0000BE76346022BECD1019B032B00D118E133
:10C4F0004B46002BE5D00199C847E2E7022A00D05D
:10C500002CE7032900D103E100274B46002B00D183
:10C5100025E7C84723E76346022B00D05BE7019B72
:10C52000032B00D1F7E04B46002B00D153E70199D4
:10C53000C84750E76346022B88D1019B032B00D1EB
:10C54000ECE04B46002B81D00199C8477EE70329D8
:10C5500000D003E704AAD21915781D431570EAE646
:10C56000032900D072E704A98C46944461460978F7
:10C5700019438A46614655460D7050E700610040F8
:10C5800004610040086100400C6100407C61004093
:10C59000EC20002000600040032900D01BE704A924
:10C5A0008C4694446146097819438A46614655464B
:10C5B0000D70F8E6032984D104A98C4694446146A1
:10C5C000097819438A46614655460D7062E7002294
:10C5D0001A6080231B061D43A022A223D205DB0084
:10C5E000D358039359E6C1224F4992008958082233
:10C5F0000A4200D14CE600211543196048E6C122E9
:10C6000049499200895804220A4200D13BE60021A0
:10C610001543196037E6C122434992008958022226
:10C620000A4200D12AE600211543196026E6C121FD
:10C630003D48890041580B4200D11AE6156001358A
:10C6400017E6032900D05FE780229202E0236546C7
:10C65000DB00ED58354F2F406546EF50EF583A4319
:10C66000EA50012751E7019B032B00D05BE78022B2
:10C670009202E0235146DB00C95801378B462B4913
:10C68000FFB28C465946654629408C465146654660
:10C69000CD50C9580A435146CA5044E7019B032B69
:10C6A00000D025E780229202E0235146DB00C958E2
:10C6B00001378B461D49FFB28C46594665462940D5
:10C6C0008C4651466546CD50C9580A435146CA501A
:10C6D0004B46002B00D00EE7F6E6019B032B00D063
:10C6E0002FE780229202E0235146DB00C958013730
:10C6F0008B460E49FFB28C465946654629408C460A
:10C7000051466546CD50C9580A435146CA5018E7AC
:10C71000C02292029AE7C0229202AAE7C0229202A5
:10C72000E1E7C0229202BFE700600040FFFFFCFF8C
:10C73000C12310B5614A9B00D35884B09B054FD5E7
:10C7400092235B00D15800294AD00021D150812189
:10C75000E5338900FF33D150594B997E002901D12F
:10C7600001315160022269460A7090215348C90084
:10C770004258425069460392DA7D68460A72DA6886
:10C78000196801920022DA751A765B6898478E2143
:10C790004A4A49005358002B0FD0494B9C8A987D38
:10C7A00084424FD200205050998A9868405C998A00
:10C7B000013189B29982434BD050A2233F4A5B009A
:10C7C000D15800290AD00021D1503D4B997E002933
:10C7D00001D001211160DA7D002A42D104B010BDE0
:10C7E000C123364A9B00D3585B07D0D5842149002A
:10C7F0005358002BCBD0324BD87D00283ED150501F
:10C80000A321C90052585A7E8242C0D11A7E002A02
:10C8100042D19A7E002A02D10121284A516081200A
:10C82000C2222649800092008850002268460121D9
:10C83000DA755A7E01700272DA68196801925B68D3
:10C840009847A4E7002454500028B6D06A461470D4
:10C8500010729A689C75196801925B6868469847DF
:10C86000ABE7002268460121DA755A7E0170027238
:10C87000DA68196801925B689847AFE7002050506A
:10C88000A320C000597E1258D86842545A7ED87DE1
:10C890000132D2B25A76B6E7DA751A69D968DA6027
:10C8A00000226C46587E1A765A7601322072019127
:10C8B0002270196868465B68984768E70020004066
:10C8C000342100201C05000073DF704776DF7047BD
:10C8D0007ADF70477CDF70477FDF7047A8DF7047E3
:10C8E000A9DF704767DF704748DF704710B5FEF774
:10C8F000A3FD10BD10B50220002902D1FFF740FAB8
:10C9000010BDFFF72FFAFBE710B50378002B00D01E
:10C9100010BD054B3B211888FFF7D8FF0028F7D042
:10C92000FEF78AFDF4E7C0465020002010B511281C
:10C9300009D1064801F046F9082302009A4304D0C1
:10C94000034B984201D0FEF777FD10BD5021002027
:10C950000230000010B5038886B00400132B00D10C
:10C960007FE00FD9512B64D04BD9522B3FD0552BA0
:10C970000ED1A0881321FFF7A9FF002808D0FEF7E9
:10C980005BFD05E0102B3FD0112B0AD0022B49D0C4
:10C99000200000F0FDFE2100374800F0F1FF06B056
:10C9A00010BD0120FFF7ECF90122344B52421A80EE
:10C9B000FEF728FD002801D0FEF73EFD18220021D9
:10C9C0006846FEF725FC00236A4669461370137219
:10C9D0004022684601930A824B82FFF775FF0028C8
:10C9E00001D0FEF729FD0020FFF7BCF9D0E7234B6B
:10C9F0000022188800210023FFF772FF0028C7D00B
:10CA0000BDE73A2BB5D0C3E70120FFF7ABF9002013
:10CA1000FFF7B6F9A288194B1A80FEF7DBFC002855
:10CA2000B6D0ACE780880021FFF75CFF0028AFD0CC
:10CA3000A5E78379002BABD0827B043A022AA7D8E2
:10CA4000023B5A4253416A4601331370C1235B00D3
:10CA5000938080886946FFF741FF002800D197E75F
:10CA60008DE7064B0022188885210023FFF734FF4D
:10CA7000002800D18CE782E75021002050200020C0
:10CA8000F0B5A1B0FFF788F90023644A0521002022
:10CA9000FEF7DEFF002801D0FEF7CEFC604A012140
:10CAA0006048FEF73DFC002801D0FEF7C5FC02AD52
:10CAB00004225D49280001F0B1F9002348225B49B6
:10CAC000280001F013F9002801D0FEF7B5FC11ACE5
:10CAD00022000121002001F07BF9002801D0FEF79F
:10CAE000ABFC200001F08CF9002801D0FEF7A4FC7B
:10CAF0004F4801F04BF9002801D0FEF79DFC0F21B3
:10CB000001222B784B4E8B43134310220B401343CF
:10CB100030002B7001F08BF9310082B22800FFF752
:10CB2000D9FE002801D0FEF787FC08220021200052
:10CB3000FEF76EFB50232380503363800023A380D5
:10CB40009133FF332000E380FFF7C2FE002801D0BD
:10CB5000FEF772FC384F394B21003800119300F07A
:10CB60002DFF002801D0FEF767FC354B01AE338066
:10CB7000BB7C3C22B37000212800FEF749FB022356
:10CB800001272B70002104333C222000AF70EB7092
:10CB9000FEF73EFB210028002782666100F0F0FAD4
:10CBA000002801D0FEF748FC1C2200212000FEF7DF
:10CBB0002FFBA02212036260A02200239202A26037
:10CBC00003221193E38123741E4B200063611E4BEB
:10CBD0002273A36100F0A0FD002801D0FEF72CFC19
:10CBE000182200212000FEF713FB00234022200022
:10CBF00023706360237222826382FFF765FE002840
:10CC000001D0FEF719FC0020FFF7ACF8FFF76CFE2F
:10CC10000028FBD0FEF710FCF8E7C046B421002046
:10CC2000660600004820002060DE01006C21002024
:10CC300055C9010064DE010050210020F5C8010043
:10CC40002315000009C90100EDC8010071DF70471C
:10CC500072DF704779DF70477DDF704765DF7047AF
:10CC6000F0B55F4656464D464446F0B485B09A4608
:10CC70000EAB80CB06001B8800919B463B8801933E
:10CC80000388002B63D00023994602ABDD1C3B00D8
:10CC900000241700984603E033880134A3422CDDBA
:10CCA0007368A1009C460422614403A801F0B6F811
:10CCB0000022290003A8FFF7D1FF002829D12B78F3
:10CCC000BB42E9D14B46002B2AD043461A88D319E0
:10CCD0005B453EDC5244290003A8FFF7BFFF002854
:10CCE00017D143462A781B880134D3184246138053
:10CCF000012399463388A342D2DC4B464746002B9A
:10CD000025D03B88019A013B9B1A9BB20C20FF2B3C
:10CD10001AD905B03CBC90469946A246AB46F0BD38
:10CD200043461B88DA1902325A4512DC4246013367
:10CD300069469BB2138052460978D15443461A88FB
:10CD4000013292B21A80C5E71100524653540020B6
:10CD5000DFE70C20DDE7C046F0B5444656464D46B9
:10CD60005F46F0B4138814009846002313802D33D7
:10CD7000C25C87B005000E000023002A00D0EFE05F
:10CD8000AA78002A00D018E1E978002900D0DCE078
:10CD90006A68002A15D0D91C414500D9D8E0022183
:10CDA0001278F1542388083101339BB22380F15467
:10CDB000238852B201339BB22380F254238801337B
:10CDC00023802B89002B00D02AE12B8A002B00D056
:10CDD00041E12B8B002B00D058E12B6A002B48D06F
:10CDE00022880C20911D414500D9B2E019880538F0
:10CDF0008B46052900D8ACE0B54F5F44BFB2B946B9
:10CE0000B44FBC46B94500D8A3E05F88BA46052FA9
:10CE100000D89EE0AE4F6946B946D1444F46CF8117
:10CE2000CF89674500D894E0AB4FBB4504D0BA45E5
:10CE300002D0D34500D98CE00521B15422880D31B0
:10CE4000013292B22280B1542288013292B2228001
:10CE50001988B2181170090A51702288023292B2F0
:10CE600022805988B3181970090A5970238802332F
:10CE700023806F6A002F2CD0BA882188131D5B187D
:10CE80000C20434565D8931CFE2B62D803327254A4
:10CE9000FF22238801339BB22380F254238801337D
:10CEA0009BB223803A88F3181A70120A5A702388AA
:10CEB00002339BB22380BA88002A0AD0B9680538A9
:10CEC000002946D0F01800F0A9FF2288BB88D318AB
:10CED00023802C23EB5C002B00D0FFE02B7800207C
:10CEE000002B36D02A880720012A32D02288901CB5
:10CEF00040452DD8012B04D16B7802339B189845FF
:10CF000026D34746023FBA1A97B202AB301804A99B
:10CF10001F81FFF7A1FE00281BD12B78022B00D127
:10CF200025E1012B00D1CCE03B000821FE2B0FD8DE
:10CF300022885D1CB5542288013292B22280B154FD
:10CF4000228801329B18238003E0DA1C424555D920
:10CF50000C2007B03CBC90469946A246AB46F0BDBB
:10CF600043460C20082BF4D904A8FFF76FFE0028D5
:10CF7000EFD1082223880921F25423881332013388
:10CF80009BB22380F25402AB9C462088153A0130B4
:10CF900080B220806144301800F040FF238802AA4C
:10CFA0000633127A9BB22380002A00D00122F25469
:10CFB000238801339BB22380E2E604330C204345EF
:10CFC000C7D804A8FFF746FE0028C2D10322238851
:10CFD000F2542388163201339BB22380F254238803
:10CFE00002AA01339BB212892380F3181A70120A25
:10CFF0005A70238802339BB22380C5E60222F25482
:10D000002388013A01339BB22380F25423880133F1
:10D010009BB22380F154238801339BB22380B7E66F
:10D020002F00434608370193009433000222022167
:10D030003800FFF715FE002800D08AE74346009429
:10D0400001931022330006213800FFF709FE002863
:10D0500000D07EE7B9E62F004346103701930094D5
:10D060003300022203213800FFF7FAFD002800D028
:10D070006FE74346009401931022330007213800E4
:10D08000FFF7EEFD002800D063E7A2E62F0043463D
:10D090001837019300943300022214213800FFF75F
:10D0A000DFFD002800D054E743460094019310228E
:10D0B000330015213800FFF7D3FD002800D048E7E2
:10D0C0008BE66B789F4200D32FE73B002DE7C046ED
:10D0D0007FF3FFFF7DF30000FFFF0000AF6A002F2A
:10D0E00043D0BB880233FE2B00D931E700229146A2
:10D0F00016329246163293462088524601333354F4
:10D10000238801339BB22380F254238801339BB2DE
:10D1100023803A88F3181A70120A5A702088023055
:10D1200080B22080BA88002A0AD0B96800291CD0B1
:10D13000301800F073FE2088BB88C01880B22080B1
:10D140004B460133DBB299465B46EB5C4B4500D85E
:10D15000C4E64B465F00AB6A4F449C46BF00674441
:10D16000BB880233FE2BC8D9F2E60720F1E602ABFA
:10D170001B8909219F4200D3D8E63B00D5E6C04673
:10D18000F0B54E46574645461F23E0B496B002AA76
:10D1900004000E00D38100282ED0C078430724D588
:10D1A000002302AA93812D33E35C002B00D074E1AD
:10D1B000A3780EAF002B00D0ACE1002300210322A6
:10D1C00006AD02276F54591C02339BB289B2013F4E
:10D1D0006F54E85493B202AA93816268002A39D04E
:10D1E000D91C1F2929D90C2000E0072016B01CBC2F
:10D1F00090469946A246F0BD002502AB9881002ECC
:10D2000016D0F378002BF0D102AA94460E23634483
:10D210001A000EA93000FFF79FFD0028E6D102ABEF
:10D220009B7B0EAA02A9097B2800FFF711FDDDE711
:10D2300002ABDE8100220023F4E700201056022218
:10D240000A27EA545A1C02339BB292B2AF54E854F4
:10D2500002AB99812389002B00D0C4E0238A002BE4
:10D2600000D0DEE0238B002B00D0F8E0226A002AF9
:10D270003ED002AB9B890C20991D1F29B6D810887F
:10D2800082460528B1D9B14F5744BFB2B846B04F16
:10D29000BC46B845A9D95788B946052FA5D9AB4F83
:10D2A0006846B846C8444746C781C78967459CD980
:10D2B000A84FBA4504D0B94502D0CA4500D994E771
:10D2C00005201227E854581C80B22F54981C80B2B5
:10D2D00002AFB8811788281807703F0A47700433D7
:10D2E00052889BB2EB181A70120A5A7002AB9981DD
:10D2F000676A002F34D0BB88991C02AB9B899A1CAB
:10D3000050188046914642460C201F2A00D96DE7EE
:10D31000FE2900D96AE70131E954591C89B2F3307A
:10D3200068544A466946CA81CA8902A98A813988ED
:10D33000AA180433117098B2090A02AB517098818F
:10D34000BA88002A0CD0B968002900D14DE7281806
:10D3500000F064FD02AB9A89BB88D31802AA9381BE
:10D360002C23E15C002900D0F6E02378002B00D1CB
:10D3700045E722880720012A00D137E702AA9289CF
:10D38000901C1F2800D92EE7012B05D163789B182C
:10D3900002331F2B00D926E71D230EAF9A1A93B232
:10D3A0002818390098463B80FFF756FC002800D02B
:10D3B0001CE72378022B00D119E1012B00D11CE1DD
:10D3C000434608203B804346FE2B00D90BE702AAC8
:10D3D0009289591CA954511C02329B1889B202AA85
:10D3E000685493810BE71F23270098460837019361
:10D3F00005AB009302222B0002213800FFF730FC1E
:10D40000002800D0F2E64346019305AB00931022BA
:10D410002B0006213800FFF723FC002800D0E5E6AA
:10D420001CE71F23270098461037019305AB009394
:10D4300002222B0003213800FFF712FC002800D045
:10D44000D4E64346019305AB009310222B0007213D
:10D450003800FFF705FC002800D0C7E602E71F23CD
:10D46000270098461837019305AB009302222B0042
:10D4700014213800FFF7F4FB002800D0B6E643463D
:10D48000019305AB009310222B0015213800FFF704
:10D49000E7FB002800D0A9E6E8E60EAF3800FFF76A
:10D4A000D5FB002800D0A1E6082202AB9B8906AD7F
:10D4B000EA545A1C023398B21B2102AB9C4692B22A
:10D4C000A9541631988106226144281800F0A6FC60
:10D4D00002AB9B8902A99A1D92B28A8139780029F0
:10D4E00000D001210733A9549BB202AA9381A278EC
:10D4F000002A0AD1E078002800D16EE6DA1C190073
:10D500001F2A00D85DE60C2070E604330C201F2B88
:10D5100000D96BE63800FFF79DFB002800D065E6D8
:10D520000322192102AB9B8906ADEA545A1C92B220
:10D53000A9549A1C398892B2AA1811700433090AA6
:10D5400051709BB202AA9381D4E7C0467FF3FFFFDC
:10D550007DF30000FFFF0000A76A002F00D144E622
:10D56000BB880233FE2B00D93DE602AA9089002237
:10D57000904616329146163292464A4601332B5453
:10D58000431C9BB2EA54831C9BB202AA93813A8843
:10D59000EB181A700430120A5A7080B202AB9881EC
:10D5A000BA88002A0FD0B968002900D11DE62818D2
:10D5B00000F034FC02AB9889BB88C01880B202AB83
:10D5C00098815346E15C43460133DBB298468B4277
:10D5D00000D3CAE643465F00A36A47449C46BF00A7
:10D5E0006744BB880233FE2BC7D90C20FEE53B887D
:10D5F0000930984500D3E7E6E2E66378984500D223
:10D60000DEE63B800820DFE675DF704776DF704797
:10D610007ADF70477BDF704710B5184B82B01888EF
:10D62000174B984214D0174A174C13780133DBB2CA
:10D630001370217B99420DD200231370237C002BA1
:10D6400012D16369002B03D0002201A80270984711
:10D6500002B010BD0D49FFF7D7FF0028F8D0A3692D
:10D66000002BF5D09847F3E73B21FFF7CFFF0028C9
:10D67000E7D0A369002BE4D09847E2E778220020A6
:10D68000FFFF0000382200203C2200207C220020E6
:10D6900030B51B4B1B4A5B88118883B099420FD869
:10D6A00052889A420CD3184B5B69002B03D001229D
:10D6B00001A802709847154C0023237003B030BDB9
:10D6C000124C2378002B08D00F4B5B69002BF3D052
:10D6D000002201A802709847EEE70D4B0A4D1B7817
:10D6E000002B0BD0A96800220A48FEF763FA002835
:10D6F000E2D0AB69002BDFD09847DDE76968F2E73D
:10D70000302200207C2200203C2200202C220020FD
:10D710003822002058220020164902000B0070B564
:10D7200032CA32C332CA32C312681A600022124BA4
:10D7300001681A70002916D0104C0832200000F041
:10D740006DFB2000FFF764FF00280BD101220C4B7A
:10D7500052421A8000220B4B00211A700A480B4AD1
:10D76000FEF70EFA70BD0548FFF754FF0028EDD014
:10D77000F8E7C0463C2200202C2200207C2200201A
:10D78000782200203822002070DE010019D6010026
:10D7900010B50388112B33D021D9122B18D0502B60
:10D7A0001CD1204CC288E3899A4217D1038A022BEC
:10D7B00014D1123000F040F800280DD11A48FEF7BD
:10D7C00059FA00280AD0A369002B07D0984705E032
:10D7D000164B083006C806C3FFF75AFF10BD102BC2
:10D7E000FCD18288124B18301A80104B06C806C331
:10D7F0000022104B1A700B4BDB89002BEED1EBE7AC
:10D8000001220B4B52421A8000220A4B06481A7022
:10D81000FEF730FA0028E1D0024B9B69002BDDD0E7
:10D820009847DBE73C2200205822002030220020CD
:10D830007822002038220020012300781840704709
:10D8400003210A4802680A430260094802680A4341
:10D8500002600849084A094B9B1A03DD043BC8587B
:10D86000D050FBDC00F012F8FDF75AFC2405004014
:10D870005405004090DE0100E81F002064200020D5
:10D88000FEE7FEE7FEE7FEE7FEE7FEE72E4B1B782E
:10D89000012B00D070472D4B1B681B07FAD1F022DB
:10D8A0002B4B1B68134027D12A4B1B6813422BD0EC
:10D8B000264B1B681B07EDD1F022254B1B6813403C
:10D8C000402B2DD0224B1A68F0231340A02B01D0FF
:10D8D000D02BDFD1F0231F4A12681A42DAD11E4A38
:10D8E0001368012B04D01D4B13601368012BFCD16E
:10D8F000C0221B4B1A60CDE7102B01D0302BDBD19F
:10D90000144B1B681342D7D1164A174B1A6080225A
:10D91000164B12021A600C4B1B78012BC8D0B9E7CA
:10D920000C4B1B681342CDD1C12380220121DB00A7
:10D93000D205D150044B1B78012BABD1034B1B6894
:10D940001B07BFD0A6E7C046E00F00F0E40F00F0D1
:10D95000E80F00F0EC0F00F000EC064075930000BB
:10D9600014EC0640DFFF07C004050040186C0040BF
:10D97000A0DF7047A2DF7047A6DF704763DF704704
:10D9800010B50B88112B15D0502B05D0102B00D0C3
:10D9900010BD8B888382FBE74288CB889A42F7D1FF
:10D9A0000B8A0631012BF3D18369002BF0D0097B60
:10D9B0009847EDE701235B428382E9E7F0B55646DD
:10D9C00044465F464D460123F0B45B4283820B68B8
:10D9D00006008361102395B01022764904A89A4668
:10D9E00000F01CFA310004A81231FFF7C7FF041E33
:10D9F00007D0200015B03CBC90469946A246AB46E5
:10DA0000F0BDB37C02A98B706B4B320001200B8000
:10DA1000FFF7AEFF041EECD1032200216846FDF79C
:10DA2000F7FB0F226B4691461B780DAD93430E3AE0
:10DA3000904613434A461340102293465A461343D6
:10DA40006A46137053784A469343424613434A4604
:10DA500013405A4613436A46537093780622934301
:10DA6000043A13436A460021937028001C22FDF7F4
:10DA7000CFFB02222B78002113435A4613432B700D
:10DA80006B466A466B61B37C01A893734B4B6C6029
:10DA900093810322EC602C61AC61FDF7B9FB6B460E
:10DAA0004A461B7908AF9343424613434A46134004
:10DAB0005A4613436A461371002353719379062221
:10DAC0009343043A1343DBB20632934352469343E3
:10DAD000424693436A460021937138001422FDF7B1
:10DAE00097FB03AB089301AB7B6043463B81BB8153
:10DAF000330030880A333A0029007C813C61FFF70B
:10DB000039FF041E00D074E71C2200212800FDF715
:10DB10007FFB02222B7800211343082213436A461D
:10DB20002B70B37C01A89373254B6C609381032207
:10DB3000EC602C616C61AC61FDF76AFB6B464A4698
:10DB40001B7900219343424613434A4613405A46E9
:10DB500013436A46137153794A469343424613432B
:10DB60004A4613405A4613436A4653719379062234
:10DB70009343043A1343DBB2063293435246934332
:10DB8000424693436A46380093711422FDF740FBE6
:10DB900003AB089301AB7B60434630883B81BB817C
:10DBA0003A00B31C29007C813C61FFF7E3FE0400CE
:10DBB0001FE7C04674DE0100231500002415000095
:10DBC00025150000F0B589B06B460E26DF1DD97112
:10DBD000012304AC05006E44102200212000338094
:10DBE000FDF716FB0123A3706B89A88A210023800F
:10DBF000E760A660FFF7C0FE09B0F0BD52DF7047D6
:10DC000010DF704760DF704761DF704710B5FDF7C8
:10DC100023FC10BDF0B557464E464546E0B42B4BAD
:10DC200000261C689A4663425C41294B294F99465D
:10DC3000294B82B09846E4B2002E1BD105E0FDF7D7
:10DC4000FBFB002C19D001240026224D2B78002B41
:10DC500033D101A8FFF7D2FF052828D00028EED144
:10DC60000198FEF7F3F81D4B1B68002BE9D00198D3
:10DC70009847E6E7002C20D13D002B78002B1CD1E3
:10DC80004B461B8801A90B8043461C682000FFF708
:10DC9000BBFF052817D0002803D0FDF7CDFB0024DB
:10DCA000CAE7534620001B6898470024C4E7002CAD
:10DCB00003D12B780126002BE2D002B01CBC904689
:10DCC0009946A246F0BD002EBDD0F6E79022002076
:10DCD0008622002084220020882200208C2200201E
:10DCE000014B1878C0B270478522002070B5072418
:10DCF000002901D08D0701D0200070BD01251B4CEB
:10DD000021601B491B4C0A801B4A136023681D427B
:10DD100009D080231949E550FFF772FF002807D08A
:10DD200025600400E8E71549FFF76AFF041EE3D108
:10DD30000124134B1C70FEF79BF8C5230D4A9B0072
:10DD4000D3589B0D1C4207D00E4B5C68002C05D1AC
:10DD50008023DB031360CFE70B4CCDE780211A68EB
:10DD6000C9030A431A600024C6E7C046882200207F
:10DD70008622002000E100E0942200200DDC01005A
:10DD8000852200209822002002200000002803D0D5
:10DD9000024B1860002070470E20FCE79022002004
:10DDA00010B5094B1B68002B06D09847002800D1FE
:10DDB00010BDFDF741FBFBE7044B1B78002BF7D0B0
:10DDC000FFF728FFF4E7C0469422002085220020B8
:10DDD00070B5140005000E00142200212000FDF78C
:10DDE00017FA002301222361237B228093432373AC
:10DDF00026726572002D01D00123A372002070BD30
:10DE000000B5054B83B00193019B69460093FFF772
:10DE1000F9FE019B03B000BDE81F0020002310B5F0
:10DE20009A4203D0CC5CC4540133F9E710BD0023FF
:10DE3000C25C0133002AFBD1581E7047F8B5C046BA
:10DE4000F8BC08BC9E467047F8B5C046F8BC08BC94
:10DE50009E467047E81F00208C20002015161718DA
:10DE6000010000075750542D52696E6700000000F2
:10DE70005822002023D1BCEA5F782315DEEF12126E
:08DE800000000000000000009A
:08DE880098D2FF7F01000000A9
:10DE90000000000000000000000000000000000082
:10DEA0000000000000000000000000000000000072
:10DEB0000000000000000000000000000000000062
:10DEC0000000000000000000000000000000000052
:10DED0000000000000000000000000000000000042
:10DEE0000000000000000000000000000000000032
:10DEF000110003002DC90100FFFF00000024F40001
:0CDF0000E9B00100C1B001000000000009
:040000031000D841D0
:00000001FF
